:100000000C94B40F0C94D50F0C94D50F0C94D50F01
:100010000C944D220C94D50F0C94D50F0C94D50F45
:100020000C94D50F0C94D50F0C94D50F0C947035FF
:100030000C94D50F0C94EA3C0C94AE350C94DB3543
:100040000C9408360C9435360C9462360C948F362A
:100050000C94BC360C94E9360C9416370C94433748
:100060000C94D50F0C94D50F0C94D50F0C94D50F80
:100070000C94D50F0C94D50F0C94D50F0C94D50F70
:100080000C94D50F0C94D50F0C94D50F0C94D50F60
:100090000C94D50F0C94D50F0C94D50F0C94D50F50
:1000A0000C94D50F0C94D50F0C94D50F0C94D50F40
:1000B0000C94D50F0C94D50F0C94113D0C9432393F
:1000C0000C945F390C948C390C94B9390C94E63942
:1000D0000C94133A0C94403A0C946D3A0C949A3A5E
:1000E0000C94C73A0C94D50F0C942E2C0C94D50F6D
:1000F0000C94D50F0C94D50F0C94D50F0C94D50FF0
:100100000C940C230C94D50F0C94D50F0C94D50F94
:100110000C94D50F0C94D50F0C94D50F0C94D50FCF
:100120000C94D50F0C94D50F0C94D50F0C94D50FBF
:100130000C94D50F0C9470370C949D370C94CA37DF
:100140000C94F7370C9424380C9451380C947E3866
:100150000C94AB380C94D8380C9405390C94D50F0A
:100160000C94D50F0C94D50F0C94D50F0C94D50F7F
:100170000C94D50F0C94D50F0C94D50F0C94D50F6F
:100180000C94D50F0C94D50F0C94D50F0C94D50F5F
:100190000C94D50F0C94D50F0C94D50F0C94D50F4F
:1001A0000C94D50F0C94D50F0C94D50F0C94D50F3F
:1001B0000C94F43A0C94213B0C944E3B0C947B3BF6
:1001C0000C94A83B0C94D53B0C94D50F0C94D50FF4
:1001D0000C94D50F0C94D50F0C94D50F0C94D50F0F
:1001E0000C94D50F0C94D50F0C94D50F0C94D50FFF
:1001F0000C94D50F0C9421440C94DF446461746119
:100200006C6F6767657220696E69740D0A000D0A6C
:100210000D0A5B4552524F525D20436F6E6669670F
:1002200075726174696F6E206973206D697373698B
:100230006E672C20636865636B2074686520696E47
:100240007465726E616C20656570726F6D20696D8A
:100250006167650D0A00444C5F5441534B5F535432
:100260004F52455F44543A20256C750D0A00444CAA
:100270005F5441534B5F53454E445F44543A2025ED
:100280006C750D0A00444C5F5441534B5F53594EFB
:10029000435F44543A20256C750D0A00444C5F546A
:1002A000494D455F44543A20256C750D0A00286479
:1002B0006174616C6F676765725F696E697429202C
:1002C000656570726F6D206974657261746F7273A9
:1002D00020617265203A0D0A0028646174616C6FB8
:1002E000676765725F696E697429207265736574EA
:1002F00074696E67206974657261746F72730D0A38
:100300000054434330207265736F6C7574696F6E6F
:10031000203D20256C750D0A0028646174616C6FA6
:10032000676765725F736E617073686F745F646135
:1003300074612920536E617073686F74206D656DF0
:100340006F72792069732066756C6C20736F6D65B0
:100350007468696E672077726F6E672069732068B2
:10036000617070656E696E670D0A00286461746162
:100370006C6F676765725F696E6974292072657357
:10038000657474696E6720656570726F6D0D0A0023
:10039000444C5F5441534B5F53594E435F54494D56
:1003A000450028646174616C6F676765725F73797B
:1003B0006E635F74696D65292074686520475052CB
:1003C000532073746174757320666C616720697360
:1003D000206E6F74204F4B2C2074686973207461F9
:1003E000736B2077696C6C2066696E69736820682E
:1003F0006572650D0A0028444C5F73796E637469F9
:100400006D65292073657276696365207265747500
:10041000726E65643A2000253032642F25303264D4
:100420002F256420253032643A253032643A253055
:1004300032640D0A0028444C5F73796E6374696DF1
:100440006529204E657720646174652069733A20C0
:1004500000286265666F72655F73656E645F6368CE
:1004600065636B292054686520475052532073748C
:1004700061747573206973206E6F74204F4B207404
:10048000686973207461736B2077696C6C20656E8A
:100490006420686572650D0A00286265666F726582
:1004A0005F73656E645F636865636B2920415432D6
:1004B0003443585820696E69742077656E742077CC
:1004C000726F6E672C2061626F7274696E67207044
:1004D000726F6365647572650D0A00286265666FE8
:1004E00072655F73656E645F636865636B29204442
:1004F0006174616C6F6767657220697320656D70E8
:1005000074792E204E6F7468696E6720746F207343
:10051000656E640D0A00444C5F5441534B5F534574
:100520004E445F444154415F505245504152455FF3
:100530005254002F434D445F43484B3F415753496A
:10054000443D00264150495F5645523D31004F4BD6
:100550000009676F74204F4B0D0A004745545F42F6
:10056000595F444154455F52414E47453A0009475F
:1005700045545F42595F444154455F52414E47459F
:1005800020706172616D65746572732000647442DD
:1005900065673A256C75096474456E643A256C7517
:1005A0000D0A0046575F5550444154453A000946EC
:1005B000575F55504441544520706172616D6574B8
:1005C00065727320004B4F00095B5741524E494EF4
:1005D000475D205365727665722072657475726E20
:1005E00065642061204B4F206D6573736167650DF5
:1005F0000A00095B5741524E494E475D20536572D0
:100600007665722072657475726E656420616E2005
:10061000756E6B6E6F776E2073746174656D656E49
:10062000740D0A00444C5F434D445F4745545F429C
:10063000595F444154455F52414E474500444C5F29
:100640005345415243485F5245434F52445F4259DC
:100650005F444154450028646C5F73656172636850
:100660005F7265636F72645F62795F64617465294C
:1006700020446174616C6F676765722069732065DF
:100680006D7074792E204E6F7468696E6720746F78
:10069000207365617263680D0A0028646C5F73657E
:1006A000617263685F7265636F72645F62795F64D1
:1006B00061746529204154323443585820696E6969
:1006C000742077656E742077726F6E672C2061627C
:1006D0006F7274696E672070726F6365647572659E
:1006E0000D0A005365617263682063616C6C656418
:1006F00020776974682064743D256C7520666F7579
:100700006E6420256C750D0A00476F696E67206660
:10071000726F6D206261636B7761726420746F2009
:10072000666F72776172640D0A00476F696E6720A9
:1007300066726F6D20666F727761726420746F20CD
:100740006261636B776172640D0A00476F696E675F
:10075000206261636B77617264202D204E6F206D83
:100760006174636820666F756E640D0A00476F6977
:100770006E6720666F7277617264202D204E6F2045
:100780006D6174636820666F756E640D0A000952AE
:1007900065636F726420666F756E6420000D0A09D0
:1007A0005265636F7264202064743D256C750D0A78
:1007B0000028646C5F6974657261746F725F6D6F3D
:1007C00076656261636B29206974657261746F720A
:1007D00020726561636865642074686520454E44D5
:1007E00020706F736974696F6E0D0A0028646C5F06
:1007F0006974657261746F725F6D6F7665666F7232
:100800007761726429206974657261746F722077F0
:100810007261707320646174616C6F676765720DDB
:100820000A0028646C5F6974657261746F725F6D31
:100830006F76656261636B29206974657261746F9C
:100840007220777261707320646174616C6F676786
:1008500065720D0A0028646C5F6974657261746F5B
:10086000725F6D6F76656261636B29206974657272
:1008700061746F7220726561636865642074686575
:1008800020535441525420706F736974696F6E0D18
:100890000A00094E6F7468696E67206C6566742083
:1008A000746F2073656E642C207175697420746890
:1008B000652070726F6365647572650D0A00265459
:1008C00049443D256C750009426567696E206F6675
:1008D000206D656D6F727920726561636865640D66
:1008E0000A00097265636F72642000095265636FC4
:1008F00072642074696D657374616D7020256C7508
:100900000D0A00094D696E696D756D20646174652D
:1009100020726561636865640D0A0009666C616731
:100920002073656E74206973207365742C20736B5B
:1009300069700D0A002354494D453D256C752642CA
:100940003D257526503D257526533D2575000948E2
:10095000545450207265616420676F74203A2000FF
:100960000972657175657374696E6720616E6F7465
:1009700068657220697465726174696F6E0D0A0032
:1009800056426174203D2025750D0A726563494405
:1009900020256C752000506F776572204F6E0D0A10
:1009A000004D4355205265766973696F6E203A2079
:1009B00000456E61626C696E67206F7363696C617C
:1009C000746F7220666F722044464C4C0D0A006FA3
:1009D0007363696C61746F72206F6B0D0A005772DC
:1009E000697465204661696C65643A204552525FBE
:1009F000494F5F4552524F520D0A00577269746554
:100A0000204661696C65643A204552525F464C55F8
:100A1000534845440D0A0057726974652046616960
:100A20006C65643A204552525F54494D454F5554C8
:100A30000D0A005772697465204661696C65643AF5
:100A4000204552525F4241445F444154410D0A00E7
:100A50005772697465204661696C65643A20455235
:100A6000525F50524F544F434F4C0D0A005772691A
:100A70007465204661696C65643A204552525F5541
:100A80004E535550504F525445445F4445560D0AFD
:100A9000005772697465204661696C65643A204547
:100AA00052525F4E4F5F4D454D4F52590D0A005700
:100AB00072697465204661696C65643A20455252DA
:100AC0005F494E56414C49445F4152470D0A005719
:100AD00072697465204661696C65643A20455252BA
:100AE0005F4241445F414444524553530D0A00570D
:100AF00072697465204661696C65643A204552529A
:100B00005F425553590D0A0057726974652046615A
:100B1000696C65643A204552525F4241445F464FDA
:100B2000524D41540D0A005772697465204661693F
:100B30006C65643A20554E4B4F4E574E20455252ED
:100B40004F520D0A0052454144204661696C65646C
:100B50003A204552525F494F5F4552524F520D0A5B
:100B6000005245414420204661696C65643A204545
:100B700052525F464C55534845440D0A0052454178
:100B80004420204661696C65643A204552525F54A6
:100B9000494D454F55540D0A0052454144202046C9
:100BA00061696C65643A204552525F4241445F443A
:100BB0004154410D0A005245414420204661696C70
:100BC00065643A204552525F50524F544F434F4C48
:100BD0000D0A005245414420204661696C65643A23
:100BE000204552525F554E535550504F5254454434
:100BF0005F4445560D0A0052454144202046616934
:100C00006C65643A204552525F4E4F5F4D454D4FE3
:100C100052590D0A005245414420204661696C65D5
:100C2000643A204552525F494E56414C49445F4117
:100C300052470D0A005245414420204661696C65C7
:100C4000643A204552525F4241445F414444524518
:100C500053530D0A005245414420204661696C659A
:100C6000643A204552525F425553590D0A0052458D
:100C7000414420204661696C65643A204552525FC8
:100C80004241445F464F524D41540D0A0052454186
:100C90004420204661696C65643A20554E4B4F4EA6
:100CA000574E204552524F520D0A00402000203A24
:100CB0002000203A20000D0A00FFFFFFFFFFFFFF8A
:100CC000FF00005B4556454E545D20555342206F52
:100CD00066660D0A005B4556454E545D20555342ED
:100CE000206F6E0D0A004144433A20256409676174
:100CF000696E3A2025640D0A0074656D7065726135
:100D0000747572653A2025640D0A002873696D397F
:100D100030305F706F7765725F6F666629206D6F28
:100D200064756C65206973204F4E20736F20706F5F
:100D3000776572206379636C696E670D0A002873AA
:100D4000696D3930305F706F7765725F6F666629E5
:100D5000206D6F64756C6520697320616C726561CC
:100D60006479204F46460D0A0053494D3930305FB3
:100D7000494E4954002873696D3930305F696E6996
:100D8000742920636F646520636F6D70696C65649E
:100D9000207769746820696E74657272757074204A
:100DA00075736172740D0A0041540D0A004F4B00B7
:100DB0002853494D3930305F696E69742920747247
:100DC00079696E6720746F20736574206120736584
:100DD0007269616C206C696E652073706565640D65
:100DE0000A002853494D3930305F696E69742920F3
:100DF0004E6F74206265696E672061626C65207455
:100E00006F20636F6E6E65637420746F2053494D5D
:100E10003930302E2054727920746F20706F7765CE
:100E200072206974206F6E20616761696E0D0A001F
:100E30002853494D3930305F696E697429206661E5
:100E4000696C656420746F2073796E6368726F6E6D
:100E5000697A65207769746820475052532055415C
:100E600052542E205468652070726F63657373202E
:100E700077696C6C20656E6420686572650D0A0088
:100E8000415445300D0A002853494D3930305F69CF
:100E90006E69742920746869732073696D39303004
:100EA00020646F65736E277420737570706F727431
:100EB00020415445300D0A002853494D3930305FE8
:100EC000696E69742920636F72726563746C79202E
:100ED00069737375656420415445300D0A004154AF
:100EE0002B435245473D300D0A002853494D3930B8
:100EF000305F696E69742920746869732073696D45
:100F000039303020646F65736E277420737570708C
:100F10006F72742041542B435245470D0A002853E9
:100F2000494D3930305F696E69742920636F727280
:100F30006563746C79206973737565642041542B03
:100F4000435245473D300D0A0041542B47534E3D17
:100F50003F0D0A002853494D3930305F696E69747E
:100F60002920746869732073696D39303020646F8B
:100F700065736E277420737570706F72742041549E
:100F80002B47534E0D0A0041542B47534E0D0A0078
:100F9000494D454920636F6465206973203A2000FC
:100FA0002853494D3930305F696E697429204154A6
:100FB0002B47534E206D65737365642075700D0A61
:100FC000002853494D3930305F696E6974292041DA
:100FD000542B47534E20474F54204F4B0D0A00418E
:100FE000542B4350494E3D3F0D0A002853494D397B
:100FF00030305F696E6974292053494D2069732030
:101000006E6F742070726573656E740D0A004154C2
:101010002B4350494E3F0D0A00AD0D9B1EA11E2BC8
:10102000101C11A71EB21EBD1EC61E53494D2050D6
:10103000494E002853494D3930305F696E69742933
:101040002053494D2070726573656E7420616E6423
:101050002069732050494E206C6F636B65640D0AE4
:10106000002853494D3930305F696E69742920502A
:10107000494E20636F6465206973206E6F74207021
:10108000726573656E7420696E206D656D6F72791F
:101090002053494D2077696C6C2072656D61696ED3
:1010A000206C6F636B65640D0A002853494D39301D
:1010B000305F696E6974292050494E20636F646502
:1010C0002069732070726573656E7420696E206D7F
:1010D000656D6F727920747279696E6720746F2004
:1010E000756E6C6F636B0D0A50494E3A2000415487
:1010F0002B4350494E3D002873696D3930305F698C
:101100006E697429205741524E494E472050494E2E
:101110002069732057524F4E470D0A0053494D2006
:1011200050554B002853494D3930305F696E697412
:10113000292053494D2070726573656E7420616E6D
:10114000642069732050554B206C6F636B65640D90
:101150000A002853494D3930305F696E697429207F
:101160006E6F2050554B20636F64652C2053494DA2
:1011700020696E69742077696C6C206661696C20E7
:10118000686572650D0A0041542B435245473F0D77
:101190000A002B435245473A20312C31002853494D
:1011A0004D3930305F696E697429206465766963F2
:1011B00065206973206E6F7420616E737765726944
:1011C0006E672061732069742073686F756C64208A
:1011D00072657374617274696E672069740D0A00B8
:1011E0002853494D3930305F696E69742920646530
:1011F0007669636520636F72726563746C792072BF
:1012000065676973746572656420696E20746865CA
:10121000206E6574776F726B0D0A002853494D3943
:1012200030305F696E697429206465766963652072
:10123000616E7377657265642000207365656D73F8
:10124000206E6F74207265676973746572656420BF
:10125000696E20746865206E6574776F726B0D0A15
:10126000002853494D3930305F696E697429207701
:10127000696C6C20636865636B20616761696E20CF
:10128000696E2035207365636F6E640D0A002873E4
:10129000696D3930305F636D645F776974685F7260
:1012A0006561645F737472696E672920676F74206B
:1012B00074696D656F742072657472696E670D0A6A
:1012C000002873696D3930305F636D645F776974CE
:1012D000685F726561645F737472696E6729206606
:1012E00061696C65640D0A002873696D3930305F7F
:1012F000776169743464696374696F6E61727929A6
:101300002074696D656F75742077616974696E67A3
:1013100020666F722073696D39303020726573708A
:101320006F6E73650D0A2873696D3930305F7761B0
:1013300069743464696374696F6E61727929204FCE
:1013400055540D0A002873696D3930305F77616933
:10135000745F646174615F6F6E5F7573617274292D
:101360002074696D65642D6F75740D0A00AD0D9B59
:101370001E2873696D3930305F726561645F737404
:1013800072696E672920676F742074696D656F7567
:10139000742077616974696E6720666F72206120BE
:1013A0006368617261637465720D0A002873696D08
:1013B0003930305F726561645F737472696E67297A
:1013C00020676F742074696D656F7574207761692B
:1013D00074696E6720666F72206120636861726154
:1013E000637465720D0A002873696D3930305F725D
:1013F0006561645F737472696E67292050726F76DD
:101400006964656420627566666572206973206E22
:101410006F742062696720656E6F7567682E20445F
:10142000697363617264696E672063686172730DCA
:101430000A002873696D3930305F776169745F73B2
:101440007472696E67292074696D656F7574207791
:10145000616974696E6720666F722073696D3930D7
:101460003020726573706F6E73650D0A2873696D35
:101470003930305F776169745F737472696E6729A0
:10148000204F55540D0A002873696D3930305F477D
:101490005052535F73696D706C655F6F70656E2934
:1014A000205573696E672041504E200053494D39D5
:1014B00030305F475052535F494E49540041542BDE
:1014C00053415042523D322C310D0A002873696D50
:1014D0003930305F677072735F696E697429207488
:1014E0006865205341504252202331207175657246
:1014F000792077656E742077726F6E6720666F72E1
:1015000020736F6D6520726561736F6E2C20707231
:101510006F6365647572652061626F727465640DD6
:101520000A002873696D3930305F677072735F69C4
:101530006E69742920626561726572206973203A50
:1015400020002873696D3930305F677072735F698E
:101550006E697429207468652053415042522023DB
:10156000322071756572792077656E742077726F9D
:101570006E6720666F7220736F6D65207265617390
:101580006F6E2C2070726F63656475726520616286
:101590006F727465640D0A002B53415042523A2019
:1015A000312C332C22302E302E302E302200287356
:1015B000696D3930305F677072735F696E69742965
:1015C0002074686520726571756573746564206246
:1015D000656172657220697320696E20636C6F7338
:1015E000696E672073746174757320285741524E79
:1015F000494E47290D0A002873696D3930305F67FD
:101600007072735F696E69742920746865207265F1
:1016100071756573746564206265617265722069B5
:101620007320616C7265616479206F70656E2857F4
:1016300041524E494E47290D0A0041542B53415007
:1016400042523D332C312C22436F6E7479706522E7
:101650002C2247505253220D0A002873696D3930ED
:10166000305F677072735F696E6974292074686592
:101670002053415042523D332C312C22436F6E7423
:10168000797065222C224750525322207175657261
:10169000792077656E742077726F6E6720666F723F
:1016A00020736F6D6520726561736F6E2C20707290
:1016B0006F6365647572652061626F727465640D35
:1016C0000A0041542B53415042523D332C312C22BD
:1016D00041504E222C2200220D0A002873696D39D8
:1016E00030305F677072735F696E69742920746847
:1016F000652053415042523D332C312C2241504EF3
:10170000222071756572792077656E742077726F0B
:101710006E6720666F7220736F6D652072656173EE
:101720006F6E2C2070726F636564757265206162E4
:101730006F727465640D0A0041542B53415042523C
:101740003D312C310D0A002873696D3930305F67E7
:101750007072735F696E69742920746865205341E3
:101760005042523D312C3120717565727920776578
:101770006E742077726F6E6720666F7220736F6D64
:101780006520726561736F6E2C2070726F63656483
:101790007572652061626F727465640D0A00415450
:1017A0002B53415042523D322C310D0A00287369AF
:1017B0006D3930305F677072735F696E69742920AC
:1017C00074686520534150425220717565727920CA
:1017D00077656E742077726F6E6720666F72207304
:1017E0006F6D6520726561736F6E2C2070726F6310
:1017F00065647572652061626F727465640D0A00BC
:101800002873696D3930305F677072735F696E6914
:10181000742920626561726572206973203A200024
:101820002873696D3930305F677072735F696E69F4
:1018300074292074686520534150425220717565A7
:1018400072792077656E742077726F6E672C2070C6
:10185000726F6365647572652061626F727465642E
:101860000D0A002873696D3930305F677072735FDD
:10187000696E697429207468652072657175657375
:101880007465642062656172657220697320696E97
:101890002027636F6E6E656374696E6727207374AB
:1018A000617475732E20436865636B20616761699D
:1018B0006E20696E2032207365636F6E64730D0A4B
:1018C000002873696D3930305F677072735F696EBD
:1018D0006974292074686520726571756573746513
:1018E0006420626561726572206973206F70656E35
:1018F0000D0A002873696D3930305F677072735F4D
:10190000696E6974292074686520726571756573E4
:101910007465642062656172657220697320636C0E
:101920006F736564206F7220696E20636C6F7369DA
:101930006E672073746174757320284552524F523C
:10194000290D0A0041542B53415042523D302C3155
:101950000D0A0041542B48545450524541440D0A3D
:10196000002B48545450524541443A002873696D45
:101970003930305F687474705F726561643129203A
:10198000233120676F742074696D656F75742077DB
:10199000616974696E6720666F722073696D393092
:1019A0003020726573706F6E73650D0A002873695D
:1019B0006D3930305F687474705F726561643129AD
:1019C0002023312070726F766964656420627566C9
:1019D000666572206973206E6F7420626967206586
:1019E0006E6F7567680D0A002873696D3930305F56
:1019F000687474705F7265616432292023322067D5
:101A00006F742074696D656F75742077616974698E
:101A10006E6720666F722073696D39303020726591
:101A200073706F6E73650D0A002873696D393030FD
:101A30005F687474705F726561643229202332209C
:101A400070726F766964656420627566666572207F
:101A50006973206E6F742062696720656E6F7567A9
:101A6000680D0A0041540D0A002873696D39303041
:101A70005F687474705F676574292053494D39300D
:101A800030206E6F7420726573706F6E64696E675C
:101A9000200D0A0041542B48545450494E49540DCE
:101AA0000A002873696D3930305F687474705F673D
:101AB0006574292041542B48545450494E495420B0
:101AC0006E6F74204F4B0D0A0041542B48545450F4
:101AD000504152413D22434944222C310D0A0028F5
:101AE00073696D3930305F687474705F676574292D
:101AF0002041542B48545450504152413D224349B7
:101B00004422206E6F74204F4B0D0A0041542B4825
:101B1000545450504152413D2255524C222C2200E7
:101B2000220D0A0041542B48545450414354494F0C
:101B30004E3D300D0A0028687474705F6765742923
:101B40002048545450414354494F4E206469646EB8
:101B500027742072657475726E204F4B0D0A002B2E
:101B600048545450414354494F4E3A0028687474C5
:101B7000705F67657429206469646E277420676FDD
:101B800074202B68747470616374696F6E20616275
:101B90006F7274696E670D0A002873696D39303091
:101BA0005F687474705F6765742920676F74207450
:101BB000696D656F75742077616974696E672066F9
:101BC0006F722068747470616374696F6E207265DF
:101BD00073706F6E73650D0A002873696D3930304C
:101BE0005F687474705F67657429206874747061CD
:101BF0006374696F6E2072657475726E65643A20E5
:101C0000002873696D3930305F687474705F676580
:101C10007429206874747067657420726573706FBE
:101C20006E736520776173206E6F74204F4B0D0AC1
:101C30000041542B48545450524541440D0A002B46
:101C400048545450524541443A002873696D393024
:101C5000305F687474705F67657429202331206772
:101C60006F742074696D656F75742077616974692C
:101C70006E6720666F722073696D3930302072652F
:101C800073706F6E73650D0A002873696D3930309B
:101C90005F687474705F67657429202331207072E7
:101CA0006F76696465642062756666657220697323
:101CB000206E6F742062696720656E6F7567680DAE
:101CC0000A0041540D0A002873696D3930305F688D
:101CD0007474705F706F7374292053494D393030BC
:101CE000206E6F7420726573706F6E64696E67200A
:101CF0000D0A0041542B48545450494E49540D0A82
:101D00000041542B48545450504152413D224349C4
:101D100044222C310D0A0041542B48545450504158
:101D200052413D2255524C222C2200220D0A0041E4
:101D3000542B48545450444154413D25642C25644F
:101D40000D0A00444F574E4C4F41440041542B481C
:101D5000545450414354494F4E3D310D0A002868B8
:101D60007474705F706F73742920485454504143E9
:101D700054494F4E206469646E27742072657475EF
:101D8000726E204F4B0D0A002B485454504143545F
:101D9000494F4E3A0028687474705F706F737429ED
:101DA000202B68747470616374696F6E206973208E
:101DB00074616B696E672061207768696C650D0AD4
:101DC000002B48545450414354494F4E3A00286820
:101DD0007474705F706F737429202B6874747061F1
:101DE0006374696F6E2069732074616B696E67201C
:101DF00061206C6F740D0A002B48545450414354B9
:101E0000494F4E3A0028687474705F706F7374297C
:101E1000206469646E277420676F74202B68747463
:101E200070616374696F6E2061626F7274696E674E
:101E30000D0A002873696D3930305F687474705F03
:101E4000706F7374292068747470616374696F6E45
:101E50002072657475726E65643A20002873696D2E
:101E60003930305F687474705F67657429206874F6
:101E70007470706F737420726573706F6E73652009
:101E8000776173206E6F74204F4B0D0A0041542B05
:101E9000485454505445524D0D0A004552524F5229
:101EA0000052454144590050485F53494D20504924
:101EB0004E0050485F53494D2050554B0053494DFB
:101EC0002050494E320053494D2050554B32000DA1
:101ED0000A0020205B4F55545D092F5C20000D0A3D
:101EE0000020205B494E5D095C2F20000D0A002078
:101EF000205B494E5D095C2F20000D0A0020205B0D
:101F00004F55545D092F5C20000D0A000966697267
:101F10007374207469702063656E74733A2025753C
:101F20000D0A096C617374207469702063656E74A6
:101F3000733A25750D0A096D617820736C6F7065B1
:101F40002063656E74733A2025750D0A09746970F3
:101F5000733A2025750D0A096D617820736C6F70D6
:101F6000652025750D0A000011241FBECFEFDFE5A7
:101F7000DEBFCDBF00E00CBF11E2A0E0B0E2ECECB0
:101F8000F8E900E00BBF02C007900D92A638B10738
:101F9000D9F725E2A8E8B1E201C01D92A23EB2073E
:101FA000E1F70E94911F0C94644C0C940000FF9286
:101FB0000F931F93CF93DF931F921F92CDB7DEB77E
:101FC0008B01F42E42E050E0BE016F5F7F4F90E046
:101FD0000E94543489819A81E0E0F0E1E81BF90B1A
:101FE0004F2D50E0E417F50708F4AF01B8010E9447
:101FF00054340F900F90DF91CF911F910F91FF906C
:102000000895CF93DF931F921F92CDB7DEB742E0C2
:1020100050E0BE016F5F7F4F80E090E00E9454343B
:1020200081E029813A812C3A314009F080E00F901B
:102030000F90DF91CF910895462FBC0188E0B7CF74
:10204000462FBC0186E0B3CF462FBC0184E0AFCF62
:10205000462FBC018AE0ABCF462FBC018CE0A7CF56
:10206000AF92BF92CF92DF92EF92FF920F931F93A6
:10207000CF93DF93CDB7DEB76097CDBFDEBF5C01F6
:102080006B017A01890140E1BE016F5F7F4F8EE0F5
:102090008EDF89819A81AB81BC81F5018083918338
:1020A000A283B3838D819E81AF81B885F601808341
:1020B0009183A283B38389859A85AB85BC85F7011B
:1020C00080839183A283B3838D859E85AF85B889F4
:1020D000F80180839183A283B3836096CDBFDEBF76
:1020E000DF91CF911F910F91FF90EF90DF90CF90F4
:1020F000BF90AF9008956150710981099109D9F796
:1021000008958F929F92AF92BF92CF92DF92EF92FB
:10211000FF920F93CF93DF930E94322194E0C92E58
:10212000D12CE12CF12CC0E0D0E09E01220F331F16
:10213000220F331F29543D4D04E04C2D6D2D8E2D63
:102140000E94672160E27EE480E090E0D4DF4601F7
:10215000540184E0A80EB11C80E2880E911CC501D8
:1021600004E022EC30E24A2D692F80E00E946721D2
:1021700060E27EE480E090E0BEDF84E0A80EB11C67
:10218000A814B90461F7219688E0C80ED11CE11C9F
:10219000F11CC230D10549F680E0DF91CF910F915B
:1021A000FF90EF90DF90CF90BF90AF909F908F9077
:1021B0000895DF92EF92FF920F931F93CF93DF93D7
:1021C000EC017B01188169818A81912F91509031B6
:1021D00030F001E19701412F0E948B2116C021E1CF
:1021E000D22ED11A0D2D9701412F0E948B2160EE26
:1021F0007EE280E090E07FDF97012D0D311D012F01
:1022000040E069818A810E948B2180E0DF91CF913B
:102210001F910F91FF90EF90DF9008958F929F9202
:10222000AF92BF92CF92DF92EF92FF920F931F93E4
:10223000CF93DF93EC0181E1869FA001879F500D32
:10224000112460E070E0812C912C54019394840E51
:10225000951EA61EB71EC880D980EA80FB8080919B
:10226000B7229091B822A091B922B091BA229701D9
:102270008601081B190B2A0B3B0B041715072607B1
:1022800037079CF441E065E578E081E00E94122F79
:102290008091B7229091B822A091B922B091BA2230
:1022A00088839983AA83BB831FC0C814D904EA0416
:1022B000FB0494F441E062E278E081E00E94122F96
:1022C000C818D908EA08FB0818E0E10EF11CC8821A
:1022D000D982EA82FB8208C0C41AD50AE60AF70A44
:1022E000C882D982EA82FB82DF91CF911F910F9140
:1022F000FF90EF90DF90CF90BF90AF909F908F9026
:1023000008952F923F924F925F926F927F928F9299
:102310009F92AF92BF92CF92DF92EF92FF920F9374
:102320001F93CF93DF93CDB7DEB7C05ED109CDBF8A
:10233000DEBF3C012DB73EB7C352DF4F2883398340
:10234000CD5DD0408DB79EB794508DBF9EBF0DB769
:102350001EB70F5F1F4F5E0191E8A90EB11C80E40C
:10236000F50111928A95E9F785E391E2CA52DF4FB0
:1023700088839983C65DD040BC0182E00E94522FC1
:10238000F30140815181628173818091B7229091E4
:10239000B822A091B922B091BA22481759076A070A
:1023A0007B0749F441E062E978E081E00E94122F66
:1023B00000E010E050C2C152DF4F0883CF5DD04033
:1023C000C052DF4F1883C05ED04060E4C80144DED5
:1023D00060E470E0C8010E9433496C01F801E80F25
:1023E000F91FDF0111971C9281E4808387E58183C7
:1023F00083E5828389E4838384E484838DE3858316
:102400007601F6E0EF0EF11C28014E0C5F1C60E433
:10241000C2011ADE60E470E0C2010E943349E80E96
:10242000F91E0E94DC3428014E0C5F1C9F938F9391
:102430007F936F938EEB98E09F938F9380E094E06F
:102440008E199F099F938F935F924F920E945D49CF
:1024500060E470E0C2010E943349E80EF91E20904A
:10246000CD223090CE224090CF225090D022F30146
:10247000F085C452DF4FF883CC5DD0404E0122ED91
:10248000820E911CF30180819181A281B381F401BC
:1024900080839183A283B3832DB73EB7265F3F4FDE
:1024A0002DBF3EBFC552DF4F1882CB5DD0409E018D
:1024B0002F5F3F4FC752DF4F28833983C95DD0401C
:1024C000CE52DF4F488159816A817B81C25DD04005
:1024D0008091B7229091B822A091B922B091BA22EE
:1024E000481759076A077B0739F441E067EC78E041
:1024F00081E00E94122FEFC061E070E0C4018EDE27
:1025000080911020823040F041E062EE78E00E943D
:10251000122FC4010E94AF21BE016F537F4FC4012F
:1025200048DE809110208823B1F1CC53DF4F8881A1
:10253000C45CD0408F93CD53DF4F8881C35CD040C3
:102540008F93CE53DF4F8881C25CD0408F93CF539F
:10255000DF4F8881C15CD0408F938BEE98E09F93D2
:102560008F93C652DF4FF881CA5DD040FF93C752A8
:10257000DF4F2881C95DD0402F930E94934940E0EE
:10258000BE016F5F7F4F81E00E94122F8DB79EB713
:1025900008968DBF9EBFCF53DF4F88819981AA8156
:1025A000BB81C15CD04082159305A405B50538F404
:1025B00041E063E079E081E00E94122F8CC0C452B8
:1025C000DF4F2881CC5DD040222379F0CF52DF4FFE
:1025D0002881C15DD040222341F041E06BE179E0E8
:1025E000809110200E94122F7FC05801AE0CBF1C9A
:1025F000C453DF4F2881CC5CD0402F93C553DF4FAD
:102600002881CB5CD0402F93C253DF4F2881CE5C12
:10261000D0402F93C353DF4F2881CD5CD0402F9300
:10262000C053DF4F2881C05DD0402F93C153DF4F8F
:102630002881CF5CD0402F93BF93AF939F938F930C
:1026400085E399E09F938F9380E094E08E199F0932
:102650009F938F93BF92AF920E945D4960E470E0B8
:10266000C5010E943349E80EF91E2DB73EB7205F21
:102670003F4F2DBF3EBFCF52DF4F8881C15DD0405D
:1026800081111DC0E1E8F0E0EC0FFD1FC552DF4FE6
:102690002881CB5DD04034E0239FE00DF11D112453
:1026A000CE52DF4F88819981AA81BB81C25DD04023
:1026B0004096A11DB11D80839183A283B383C5522F
:1026C000DF4F3881CB5DD0403F5FC552DF4F38834D
:1026D000CB5DD04009C0C552DF4F2881CB5DD040D3
:1026E000222309F4B6C008C0C552DF4F3881CB5D44
:1026F000D040303108F4E4CECE52DF4F888199814A
:10270000AA81BB81C25DD040F30180839183A28303
:10271000B38397012C193D09A8014C0D5D1D00E004
:1027200060E0C152DF4F8881CF5DD040C052DF4FA3
:102730009881C05ED0400E94342B8C01009709F034
:102740008AC080E2C852DF4F8883C85DD040BE0196
:1027500068527F4FCE0101960E94F12941E06EE45C
:1027600079E081E00E94122F18A240E0BE016F5F65
:102770007F4F81E00E94122F41E06FEC7EE181E00B
:102780000E94122F0E941F2C81E0CF52DF4F8883BE
:10279000C15DD0406E01F1E8CF0ED11CE12CF12CCF
:1027A000560151EC852E912C8C0E9D1E20E1820E3F
:1027B000911CF60181919191A191B1916F01892BA9
:1027C0008A2B8B2B99F0F701EE0FFF1FEE0FFF1FE7
:1027D000EA0DFB1D01E094014081618182810E942C
:1027E000672160E27EE480E090E085DCFFEFEF1A95
:1027F000FF0A20E1E216F104E1F6CF53DF4F8881B2
:102800009981AA81BB81C15CD04082159305A40542
:10281000B505F8F0F30140815181628173818091A7
:10282000B7229091B822A091B922B091BA2248174C
:1028300059076A077B0769F041E060E679E080911B
:1028400010200E94122F81E08093102003E610E0F8
:102850000DC000E010E00E941F2C80911820809392
:102860001020F3011082118212821382CE018A524B
:102870009F4F0E943E2FC801C352DF4F28813981EC
:10288000CD5DD0402DBF3EBFC052DF4FCDBFDEBFBC
:10289000DF91CF911F910F91FF90EF90DF90CF903C
:1028A000BF90AF909F908F907F906F905F904F9070
:1028B0003F902F9008954091BB225091BC2260918F
:1028C000BD227091BE228091B7229091B822A09132
:1028D000B922B091BA22481759076A077B0749F411
:1028E00041E06BED74E081E00E94122F20E030E0C7
:1028F0001EC08091BF22811109C041E061E574E0F2
:1029000081E00E94122F2FEF3FEF11C00E94322171
:10291000892B49F041E069E974E081E00E94122FBF
:102920002FEF3FEF04C00E94BB29282F30E0C901E0
:1029300008958F929F92AF92BF92CF92DF92EF92C3
:10294000FF92CF93DF936B017C016091B322709172
:10295000B4228091B5229091B6226C0D7D1D8E1D02
:102960009F1D0E94F23421E02093670610920820F8
:10297000A8958091002090910120A0910220B09113
:10298000032046015701881A990AAA0ABB0AC09275
:102990000020D0920120E0920220F092032080914A
:1029A0009D2290919E22A0919F22B091A022880DFD
:1029B000991DAA1DBB1D80939D2290939E22A093DA
:1029C0009F22B093A0228091A22281111FC040912A
:1029D0009D2250919E2260919F227091A022809111
:1029E000AF229091B022A091B122B091B2224817AB
:1029F00059076A077B0750F010929D2210929E2281
:102A000010929F221092A0222093A22280919922BC
:102A100090919A22A0919B22B0919C22880D991DA1
:102A2000AA1DBB1D8093992290939A22A0939B226A
:102A3000B0939C228091A322811156C0409199228B
:102A400050919A2260919B2270919C228091AB229E
:102A50009091AC22A091AD22B091AE2248175907B7
:102A60006A077B0708F440C01092992210929A22BC
:102A700010929B2210929C228091882191E1899F43
:102A8000E0011124C757DE4D8F5F8093882180912C
:102A90008821803149F441E069E173E081E00E94DE
:102AA000122F8FE0809388218FEFC816D806E80692
:102AB000F80621F40E94DC346B017C01C882D982C3
:102AC000EA82FB82188ABE016C5F7F4F80E00E9421
:102AD000272260E070E080E00E940C2282E0809378
:102AE000900181E08093A3228091042090910520A1
:102AF000A0910620B0910720880D991DAA1DBB1D2D
:102B00008093042090930520A0930620B093072083
:102B10008091A4222091A7223091A8224091A9223D
:102B20005091AA22811118C0809104209091052013
:102B3000A0910620B091072082179307A407B5073C
:102B400058F0109204201092052010920620109246
:102B5000072081E08093A522C0900420D09005201A
:102B6000E0900620F0900720A3E0B0E00E94F94733
:102B70006C157D058E059F0560F4DF91CF91FF9068
:102B8000EF90DF90CF90BF90AF909F908F900C947C
:102B9000062FDF91CF91FF90EF90DF90CF90BF9005
:102BA000AF909F908F900895AF92BF92CF92DF9297
:102BB000EF92FF920F931F93CF93DF93CDB7DEB7C2
:102BC000CB58D109CDBFDEBF82E08093A22280E93D
:102BD00093E0C757DF4F88839983C958D040BC0121
:102BE00082E00E94672F8091BF22811109C041E0DD
:102BF00062EA73E081E00E94122F01E010E0A0C0C1
:102C00000E94BB29082F10E00115110509F098C09A
:102C100060E8AA24A394B12CAC0EBD1EC50118DA3D
:102C20008EE1C557DF4F8883CB58D0409E01255792
:102C30003F4FA50160E0C5010E94542A8C010E940B
:102C40001F2C0115110509F07BC041E066EF73E010
:102C500083E00E94122F40E0B50183E00E94122F12
:102C600041E06FEC7EE183E00E94122F4AE050E0E9
:102C700060E070E0C5010E9403486B017C010E9486
:102C8000CA34AE014F575F4FC701B6010E94F32C03
:102C9000CF57DF4F8881C158D0401F928F93CE57B6
:102CA000DF4F8881C258D0401F928F93CD57DF4F9E
:102CB0008881C358D0401F928F93C957DF4F8881B6
:102CC000C758D0408F93CA57DF4F8881C658D0402D
:102CD0008F93CB57DF4F8881C558D04090E0019645
:102CE0009F938F93CC57DF4F8881C458D04090E09A
:102CF00001969F938F9387E194E09F938F93BF9268
:102D0000AF920E94934941E065E374E081E00E9444
:102D1000122F40E0B50181E00E94122FC090B32233
:102D2000D090B422E090B522F090B6220E94DC341C
:102D30006C0D7D1D8E1D9F1D0E94F234CDBFDEBF28
:102D40000E94F0291092A222CE0187579F4F0E9425
:102D50007A2FC801C557DF4FCDBFDEBFDF91CF91BE
:102D60001F910F91FF90EF90DF90CF90BF90AF90A9
:102D700008958F929F92AF92BF92CF92DF92EF927F
:102D8000FF920F931F93CF93DF93CDB7DEB7CB5452
:102D9000D109CDBFDEBF41E06CEF71E082E00E945F
:102DA000122F68E874E785E890E50E94CA3429D9B3
:102DB000811108C041E06EE072E081E00E94122FB4
:102DC00081E036C223EB32E24FEA52E26BEA72E272
:102DD00087EA92E245D98091AE228F938091AD220D
:102DE0008F938091AC228F938091AB228F9386E555
:102DF00092E09F938F93EE24E394F12CEC0EFD1E52
:102E0000FF92EF920E94934940E0B70181E00E9457
:102E1000122F8091AA228F938091A9228F93809163
:102E2000A8228F938091A7228F938EE692E09F93A2
:102E30008F93FF92EF920E94934940E0B70181E0A7
:102E40000E94122F8091B2228F938091B1228F9392
:102E50008091B0228F938091AF228F9385E892E08A
:102E60009F938F93FF92EF920E94934940E0B701A6
:102E700081E00E94122F8091B6228F938091B5221B
:102E80008F938091B4228F938091B3228F938CE99A
:102E900092E09F938F93FF92EF920E949349CDBF50
:102EA000DEBF40E0B70181E00E94122F80910D202B
:102EB00026968FAF269780910E2027968FAF279763
:102EC00080910F2028968FAF2897809109209091AC
:102ED0000A20A0910B20B0910C2025968CAF9DAFBD
:102EE000AEAFBFAF259760E185E00E947A30BE01AA
:102EF0006F5B7F4F80EA9AE00E944E3F0E94322132
:102F000004E0970140E060E080E00E948B2160E2F5
:102F10007EE480E090E0EFD88981813449F48A81B1
:102F2000833431F48B81803319F48C818133C9F17E
:102F300041E06BE673E081E00E94122F81E422966B
:102F40008FAF229783E423968FAF239780E3249655
:102F50008FAF249781E325968FAF259704E09E01DC
:102F60002F5B3F4F40E060E080E00E94672160E21D
:102F70007EE480E090E0BFD880E091E0A0E0B0E0A7
:102F80008093B7229093B822A093B922B093BA222B
:102F90008093BB229093BC22A093BD22B093BE220B
:102FA000B0D88FEF9FEFDC018093B7229093B822C7
:102FB000A093B922B093BA228093BB229093BC22F3
:102FC000A093BD22B093BE220E94322154E0C52EB0
:102FD000D12CE12CF12C460194E0891A910856017C
:102FE00010E0C50104E09E01285B3F4F4A2D692F88
:102FF00080E00E948B2160E27EE480E090E07BD85C
:103000002C968CAD9DADAEADBFAD2C978A3F9A4F3F
:10301000AA4FBA4FD9F411501770C40124E0129F7F
:10302000800D911D112404969701220F331F220F4A
:10303000331F29543D4D482F692F80E00E948B217A
:1030400060E27EE480E090E056D806C01F5F84E036
:10305000A80EB11C183029F69FEFE91AF90A28E0EA
:10306000C20ED11C82E0E816F10409F0B4CF41E0B1
:103070006EEA72E081E00E94122FC090B722D090D9
:10308000B822E090B922F090BA2287EB92E20E9437
:10309000AF218091BB229091BC22A091BD22B09122
:1030A000BE2211E08F3F9F4FAF4FBF4F31F0CF2077
:1030B000CE20CD20C09409F010E08BEB92E20E946C
:1030C000AF211123D9F041E069ED72E081E00E9467
:1030D000122F80E091E0A0E0B0E08093B7229093BF
:1030E000B822A093B922B093BA228093BB229093C6
:1030F000BC22A093BD22B093BE2203D810E01F5F74
:103100001A3069F480E00E94F22E0E94FE2E0E9486
:10311000062F60E079E08DE390E00E947B100E9432
:103120000C278111ECCF81E08093BF2210E01F5F5C
:103130001A3069F480E00E94F22E0E94FE2E0E9456
:10314000062F60E079E08DE390E00E947B102CDD9B
:10315000892B69F70E94DC34609300207093012072
:10316000809302209093032080E098E00E94023C2C
:1031700080E498E00E94023C809108088E6F809362
:103180000808809148088E6F8093480888E08093F3
:10319000400880EC8093800189E880934308809305
:1031A000030880E395E78093260890932708809191
:1031B0000008807F846080930008E0910008EF7031
:1031C000E83058F494E0E99FF0011124EA53FF4DF0
:1031D00080819181A281B38103C080E090E0DC0115
:1031E000BF93AF939F938F9381E093E09F938F93CF
:1031F0008E010F5F1F4F1F930F930E94934940E072
:10320000B80181E00E94122F89E994E10E94FD3407
:103210000E94DC346B5F7F4F8F4F9F4F0E94F234D0
:103220008AE00E94F22E0E94FE2ECDBFDEBF80E01B
:10323000C55BDF4FCDBFDEBFDF91CF911F910F91F7
:10324000FF90EF90DF90CF90BF90AF909F908F90C6
:103250000895FF920F931F93CF93DF931F921F92B6
:10326000CDB7DEB772E0F72EF092A52286E195E0A9
:1032700089839A83BC0182E00E94672F1CDB8C014A
:10328000009719F5F09210208091BB229091BC22FA
:10329000A091BD22B091BE228093C9229093CA22F0
:1032A000A093CB22B093CC220E94DC3460587145AD
:1032B000814091096093CD227093CE228093CF22DA
:1032C0009093D02281E08093D1221092A522CE014A
:1032D00001960E947A2FC8010F900F90DF91CF9135
:1032E0001F910F91FF9008952F923F924F925F92FE
:1032F0006F927F928F929F92AF92BF92CF92DF9206
:10330000EF92FF920F931F93CF93DF93CDB7DEB76A
:10331000CB5ED109CDBFDEBF2DB73EB7C751DF4F62
:1033200028833983C95ED04082E08093A62286EE4E
:1033300090E2C052DF4F88839983C05ED040BC01C9
:1033400082E00E94522FB7DA8C01009709F02EC359
:103350003DB7C551DF4F3883CB5ED0406EB688EFA6
:1033600090E2C252DF4F88839983CE5DD040BC018A
:1033700082E00E94522F4DB75EB75A954DBF5EBF97
:103380000DB71EB70F5F1F4F60E4C8010E942C10DD
:1033900060E470E0C8010E943349B82EBA942B2D26
:1033A00030E07801E20EF31E43E355E05F934F9364
:1033B000C12CDD24D394C601821B930B9C013F9347
:1033C0008F93FF92EF920E945D4960E470E0C70125
:1033D0000E943349B80E7801EB0CF11C60E4C70180
:1033E0000E94241060E470E0C7010E9433498B0DF5
:1033F00090E023E435E03F932F93C81AD90ADF9277
:10340000CF92800F911F9F938F930E945D498CE311
:10341000CE51DF4F8883C25ED0409E012E513F4F78
:10342000AE014F575F4F60E0C8010E94542A8C01E3
:103430000E941F2CADB7BEB71C96ADBFBEBF011515
:10344000110509F09EC28CE091E2C452DF4F8883DF
:103450009983CC5DD040BC0182E00E94522F42E0B3
:1034600050E06EE475E0CE018F579F4F0E941249E5
:10347000892B31F461E575E082E00E943C2F7CC22B
:1034800042E150E06BE575E0CE018F579F4F0E94FF
:103490001249892B09F049C240E050E0BE01665252
:1034A0007F4F81E890E08C0F9D1F42960E94034859
:1034B000A62E972E882E792EC652DF4F88819981AD
:1034C000CA5DD04040E050E060E070E001960E94AC
:1034D00003486B017C0180911820823010F16EE668
:1034E00075E082E00E943C2FFF92EF92DF92CF9234
:1034F0007F928F929F92AF928DE895E09F938F93EA
:103500008E010F5F1F4F1F930F930E94934940E05E
:10351000B80182E00E94122FEDB7FEB73C96EDBFD6
:10352000FEBF84E296E0C852DF4F88839983C85D6E
:10353000D040BC0182E00E94672F8DE396E0CA5222
:10354000DF4F88839983C65DD040BC0182E00E9432
:10355000672F4091BB225091BC226091BD22709197
:10356000BE228091B7229091B822A091B922B09149
:10357000BA22481759076A077B0751F466E576E0D7
:1035800081E00E943C2FC12CD12C760101E0A9C121
:1035900069D6892B51F06AE976E081E00E943C2FE0
:1035A000C12CD12C76010FEF9CC18E010E521F4F02
:1035B0008091BB229091BC22A091BD22B091BE22ED
:1035C000F80180839183A283B38361E070E0C80136
:1035D0000E940E11512CE0E8BE2E9E012F5F3F4F3E
:1035E000CD51DF4F28833983C35ED040BE016F5376
:1035F0007F4FC8010E94D910882329F0C12CD12CFB
:10360000760101E06EC1809118208230D0F1CC5358
:10361000DF4F8881C45CD0408F93CD53DF4F8881CA
:10362000C35CD0408F93CE53DF4F8881C25CD040C3
:103630008F93CF53DF4F8881C15CD0408F93FF922F
:10364000EF92DF92CF9243EE56E05F934F93CC51CF
:10365000DF4F9881C45ED0409F93CD51DF4FA8814A
:10366000C35ED040AF930E94934940E0BE016F5FBC
:103670007F4F81E00E94122FEDB7FEB73C96EDBF61
:10368000FEBFCF53DF4F88819981AA81BB81C15C86
:10369000D040511013C08C159D05AE05BF0538F400
:1036A00069E077E082E00E943C2FB69479C18C15E6
:1036B0009D05AE05BF0509F076C1B1C08C159D050D
:1036C000AE05BF0509F4ABC0C816D906EA06FB066D
:1036D00008F066C16AE277E082E00E943C2FB6946F
:1036E00062C1F80180819181A281B38181159140ED
:1036F000A105B10531F46BE477E082E00E943C2F34
:103700008EC06B2D70E0C8010E940E11512C6ECF3F
:10371000D8012D903D904D905C9021143104B8E07B
:103720004B06510431F46DE677E082E00E943C2FB5
:1037300076C0E1E1BE9E90011124A90160E070E035
:1037400080E090E0A8E0B0E0841B950BA60BB70BDF
:10375000CB51DF4F88839983AA83BB83C55ED0405A
:103760008091BB229091BC22A091BD22B091BE223B
:1037700082199309A409B50984179507A607B70705
:10378000ACF461EB77E081E00E943C2F8091BB229A
:103790009091BC22A091BD22B091BE22F8018083FD
:1037A0009183A283B3835524539420CFCB51DF4F11
:1037B00088819981AA81BB81C55ED040821593051D
:1037C000A405B505F4F46CEE77E081E00E943C2F8F
:1037D000D201C101CB51DF4F288139814A815B8100
:1037E000C55ED040821B930BA40BB50B9F5FAF4F00
:1037F000BF4FF80180839183A283B38355245394F0
:10380000F5CED201C101840F951FA61FB71FF80185
:1038100080839183A283B38355245394E7CECF53FF
:10382000DF4F88819981AA81BB81C15CD0408C1512
:103830009D05AE05BF0548F4CE52DF4FC880D98044
:10384000EA80FB80C25DD0400EC08C159D05AE05A0
:10385000BF0591F3C816D906EA06FB0608F4CECEDA
:10386000C12CD12C7601809118208823C9F16EE8F3
:1038700077E081E00E943C2FCE018E529F4F6FD5A2
:10388000CC53DF4F8881C45CD0408F93CD53DF4F42
:103890008881C35CD0408F93CE53DF4F8881C25C58
:1038A000D0408F93CF53DF4F8881C15CD0408F933E
:1038B0008DE997E09F938F938E010F5F1F4F1F93AA
:1038C0000F930E94934940E0B80181E00E94122FBB
:1038D0002DB73EB7285F3F4F2DBF3EBF00E001C070
:1038E00000E0CE018A529F4F0E947A2F10E001150E
:1038F0001105A9F4C092C022D092C122E092C22246
:10390000F092C322A092C4229092C5228092C62235
:103910007092C7221092C82281E08093A122CE012A
:1039200088529F4F0E947A2F27C04AE050E063EAF6
:1039300075E0CE018F579F4F0E941249892B31F4B9
:103940006EEA75E082E00E943C2F16C042E050E033
:1039500065EC75E0CE018F579F4F0E941249892B6D
:1039600031F468EC75E082E00E943C2F05C062EF04
:1039700075E082E00E943C2FCE0184529F4F0E944E
:103980003E2FCE0182529F4F0E943E2FC551DF4FE6
:103990003881CB5ED040832F962D8DBF9EBF06C051
:1039A000B110B6CE3CCFB1109CCE39CF1092A6222A
:1039B000CE0180529F4F0E943E2FC801C751DF4F5A
:1039C00048815981C95ED0404DBF5EBFC551DF4FB0
:1039D000CDBFDEBFDF91CF911F910F91FF90EF9090
:1039E000DF90CF90BF90AF909F908F907F906F901F
:1039F0005F904F903F902F9008950F931F93CF9318
:103A0000DF931F921F92CDB7DEB782E08093A4228E
:103A100080E291E289839A83BC0182E00E94522F66
:103A200089EC92E20E9481118C018336910531F478
:103A300081E08093A42200E010E007C00E94F029FA
:103A40001092A42281E08093A622CE0101960E94CA
:103A50003E2FC8010F900F90DF91CF911F910F91D2
:103A600008950F931F93CF93DF931F921F92CDB7AB
:103A7000DEB782E08093A12289E491E289839A8370
:103A8000BC0182E00E94522F80EC92E20E948111E0
:103A90008C018336910531F481E08093A12200E00E
:103AA00010E004C00E94F0291092A122CE010196DC
:103AB0000E943E2FC8010F900F90DF91CF911F9170
:103AC0000F9108952F923F924F925F926F927F9243
:103AD0008F929F92AF92BF92CF92DF92EF92FF921E
:103AE0000F931F93CF93DF93CDB7DEB7A597CDBFCD
:103AF000DEBF82E08093A322B5D3892B09F058C1A1
:103B0000BAD5BAD5682E592E79D610918821882435
:103B10008394912C8C0E9D1EC12CD12C7601D394B4
:103B2000BAC0115021E1219F5001112489E891E28E
:103B3000A80EB91EF5016686578683818F93828110
:103B40008F9381818F9380818F935F926F9220E812
:103B500039E03F932F939F928F920E94934940E0C8
:103B6000B40181E00E94122F8BEB92E2F8D33090E7
:103B7000BD222090BC229091BB229DA38091BB22AC
:103B80009091BC22A091BD22B091BE224196A11D70
:103B9000B11D8093BB229093BC22A093BD22B09311
:103BA000BE22CDBFDEBF0197A840B10540F0C09254
:103BB000BB22D092BC22E092BD22F092BE22809124
:103BC000BB229091BC22A091BD22B091BE22409117
:103BD000B7225091B8226091B9227091BA2284170D
:103BE0009507A607B70759F44196A11DB11D80930B
:103BF000B7229093B822A093B922B093BA228091B1
:103C0000B7229091B822A091B922B091BA2201971F
:103C1000A840B10540F0C092B722D092B822E092FD
:103C2000B922F092BA227090BB2260E27EE480E07A
:103C300090E00E947B10872D8150803168F001E177
:103C400095014DA1622D832D42D360E27EE480E098
:103C500090E00E947B101FC001E1402E4718042D08
:103C600095014DA1622D832D32D360E27EE480E088
:103C700090E00E947B109501240D311D072D40E03E
:103C80006091BC228091BD2222D360E27EE480E07C
:103C900090E00E947B10111144CF8BEB92E25FD336
:103CA000E1D2B7EB6B2EB2E27B2EA12CB12C812C92
:103CB000912C750134E0E30EF11C10E0C70104E023
:103CC0009E012F5D3F4F4E2D692F80E024D360E28F
:103CD0007EE480E090E00E947B1089A19AA1ABA1D4
:103CE000BCA18A3F9A4FAA4FBA4F09F04CC011505D
:103CF0001770C501F4E01F9F800D911D11240496DB
:103D00006C019E012F5D3F4F482F6D2D80E003D346
:103D100060E27EE480E090E00E947B1049A15AA11D
:103D20006BA17CA1F30180819181A281B3814817AD
:103D300059076A077B0771F19401220F331F220F85
:103D4000331F29543D4D4C2D6D2D80E0C0D260E2D3
:103D50007EE480E090E00E947B101F5F1770C50139
:103D6000F4E01F9F800D911D112404962BE531E294
:103D7000482F692F80E0ABD260E27EE480E090E0E3
:103D80000E947B1007C01F5F24E0E20EF11C183078
:103D900009F094CF3FEF831A930A88E0A80EB11C74
:103DA00094E0690E711CE2E08E16910409F081CF57
:103DB000109288211092A32280E0A596CDBFDEBF8D
:103DC000DF91CF911F910F91FF90EF90DF90CF90F7
:103DD000BF90AF909F908F907F906F905F904F902B
:103DE0003F902F90089511E0C8ECD5E28091A22277
:103DF000813011F40E94D4158091A322813009F4FE
:103E000061DE0091A5220130D9F423DA892B19F45F
:103E10000093A42215C00E940C278091A7229091A4
:103E2000A822A091A922B091AA224E97A109B10976
:103E30008093042090930520A0930620B093072040
:103E40008091A4228130B9F4D8DD892BA1F0E4D788
:103E50008091A7229091A822A091A922B091AA2294
:103E60004E97A109B1098093042090930520A09357
:103E70000620B09307208091A622813009F434DA1D
:103E80008091A122813031F4ECDD892B19F0C4D767
:103E90001092A1228091A422813009F4A7CF8091B1
:103EA000A322813009F4A2CF8091A122813009F4AC
:103EB0009DCF8091A222813009F498CF10930820E1
:103EC00022C0F894A8ECB5E2EA2FEC1B8D91882370
:103ED000D9F3E11102C0789416C080914800F0E057
:103EE000E85EFF4D817F9081892B8093480080910F
:103EF00048008160809348007894889580914800BC
:103F00008E7F80934800809108208111DACF6ECF98
:103F100080E894E8AEE1B0E00197A109B109E1F7CA
:103F2000089582E0809318201092C8251092C92528
:103F30001092CA251092CB251092CC2581E0809357
:103F4000CD250E942D300E94802C25D387E08093C0
:103F5000A20062E080E00E947A3060E186E00E9488
:103F60007A3061E170E280EA9BE00E944E3F41E0DE
:103F700066E979E081E00E94122F80911820882361
:103F8000A1F041E061EA79E081E00E94122F6091A6
:103F900093006F706F5B80EA9BE00E94663E41E099
:103FA0006FEC7EE181E00E94122F64E080E00E94CD
:103FB0007A308091210480FDFCCF80E00E940235A0
:103FC000882339F00E942D3560E070E0CB010E941B
:103FD000CA3441E061EB79E081E00E94122F9FB783
:103FE000F89480915200826080935200809150003A
:103FF0008860809350009FBF8091510083FFFCCF69
:1040000041E06FEC79E081E00E94122F7894D1D2E8
:104010002BD280E00E948E2F0E94B916811101C020
:10402000E2DEC1E0C093670673DFFCCFCF93DF937E
:1040300040E0BC0180EA94E00E94503DEC01CA3FA0
:104040008FEFD80709F453C0E4F4C73F8FEFD807C8
:1040500009F45FC05CF4C53F8FEFD80709F465C071
:10406000C63F8FEFD80709F066C059C0C83F8FEF31
:10407000D80709F448C0C93F8FEFD80709F05BC0E3
:104080003CC0CD3F8FEFD80701F154F4CB3F8FEF09
:10409000D80739F1CC3F8FEFD80709F04CC01BC0CF
:1040A000CF3F8FEFD80729F054F0209709F448C08C
:1040B00042C06EED79E081E00E943C2F41C06BEF81
:1040C00079E081E00E943C2F3BC067E17AE081E02B
:1040D0000E943C2F35C063E37AE081E00E943C2FD0
:1040E0002FC060E57AE081E00E943C2F29C06DE698
:1040F0007AE081E00E943C2F23C061E97AE081E010
:104100000E943C2F1DC06FEA7AE081E00E943C2FA4
:1041100017C06FEC7AE081E00E943C2F11C06FEE77
:104120007AE081E00E943C2F0BC068E07BE081E0F8
:104130000E943C2F05C067E27BE081E00E943C2F9B
:10414000CE01DF91CF910895CF93DF9341E0BC0181
:1041500080EA94E00E94503DEC01CA3F8FEFD807FF
:1041600009F453C0E4F4C73F8FEFD80709F45FC0E8
:104170005CF4C53F8FEFD80709F465C0C63F8FEFE9
:10418000D80709F066C059C0C83F8FEFD80709F4B7
:1041900048C0C93F8FEFD80709F05BC03CC0CD3F96
:1041A0008FEFD80701F154F4CB3F8FEFD80739F1E7
:1041B000CC3F8FEFD80709F04CC01BC0CF3F8FEF2B
:1041C000D80729F054F0209709F448C042C065E4AC
:1041D0007BE081E00E943C2F41C061E67BE081E012
:1041E0000E943C2F3BC06DE77BE081E00E943C2FAA
:1041F00035C069E97BE081E00E943C2F2FC066EB6F
:104200007BE081E00E943C2F29C063ED7BE081E0F0
:104210000E943C2F23C067EF7BE081E00E943C2F8F
:104220001DC065E17CE081E00E943C2F17C065E382
:104230007CE081E00E943C2F11C065E57CE081E0DC
:104240000E943C2F0BC06EE67CE081E00E943C2F78
:1042500005C06DE87CE081E00E943C2FCE01DF913B
:10426000CF9108950F931F93CF93DF93CDB7DEB710
:104270002997CDBFDEBF8E010F5F1F4F89E0F80188
:1042800011928A95E9F780E990EDA3E0B0E0898387
:104290009A83AB83BC8389E989878BE290E0A0E0B5
:1042A000B0E08D839E83AF83B88760E485E090E0C3
:1042B0000E947A30B80180EA94E00E94383D299645
:1042C000CDBFDEBFDF91CF911F910F9108950F9366
:1042D000CF93DF93CDB7DEB72B97CDBFDEBFFE0107
:1042E00031969BE0DF011D929A95E9F7805B898307
:1042F0006A834B8382E090E08D839E832F8338878F
:1043000009871A86CF0192DE2B96CDBFDEBFDF91E3
:10431000CF910F9108950F93CF93DF93CDB7DEB771
:104320002B97CDBFDEBFFE0131969BE0DF011D92D2
:104330009A95E9F7805B89836A834B8382E090E0FA
:104340008D839E832F83388709871A86CF01FCDEF1
:104350002B96CDBFDEBFDF91CF910F9108950F93C4
:104360001F93CF93DF93CDB7DEB76097CDBFDEBF8E
:104370008C0141E06BEA7CE081E00E94122F4AE070
:1043800050E0BE016F5F7F4FF801828190E00E9494
:104390003E4940E0BE016F5F7F4F81E00E94122FD7
:1043A00041E06EEA7CE081E00E94122F4AE050E09A
:1043B000BE016F5F7F4FF801818190E00E943E490E
:1043C00040E0BE016F5F7F4F81E00E94122F41E00D
:1043D00062EB7CE081E00E94122F4AE050E0BE01D7
:1043E0006F5F7F4FF801808190E00E943E4940E07E
:1043F000BE016F5F7F4F81E00E94122F41E066EBAC
:104400007CE081E00E94122F6096CDBFDEBFDF917D
:10441000CF911F910F9108959AE0899FA0011124D7
:1044200046575A4D6115710551F42AE030E069EBA9
:104430007CE0882777FD8095982F0C9484348AE05F
:10444000FB01DA0101900D928A95E1F708959AE057
:10445000899FF0011124E657FA4D8AE0DB010190B3
:104460000D928A95E1F70895E0EEF7E081858C7F63
:104470008260818783E08287E0EAF0E08281826067
:1044800082839FB7F894E9ECF5E280818F5F8083A7
:104490009FBF60E070E080E0BFCF1F920F920FB629
:1044A0000F9211242F933F934F935F938F939F937A
:1044B000809160089091610820918C2530918D2524
:1044C0002F3F3F4FD9F020918C2530918D25AC01A5
:1044D000421B530B9A014431510520F14091902524
:1044E000509191252417350768F420939025309337
:1044F000912580938E2590938F2504C080938A25E3
:1045000090938B2580938C2590938D258091922577
:10451000909193250196809392259093932581E025
:10452000809367069F918F915F914F913F912F915B
:104530000F900FBE0F901F9018956150710981095F
:104540009109D9F708951F93CF93DF93C0E6D6E082
:1045500011E01D8360E87AE186E090E0EEDF1E83E3
:1045600060E47DE083E090E0E8DF1D8360E87AE1CD
:1045700086E090E0E2DF1E8360E47DE083E090E08F
:10458000DCDF60E47DE083E090E0D7DF1D83DF9136
:10459000CF911F910895E0E6F6E081858C7F8160E0
:1045A000818780E28287E0EAF0E082818160828315
:1045B0000895CF938091D222813061F1C1E0C09300
:1045C000D2228091680685FD12C080E00E94F32F00
:1045D0000E94BE3182E080935600C0936000B3DF3A
:1045E00041E063EC7CE082E00E94122F11C084E085
:1045F00080935600C09360000E949C3181E00E942D
:10460000F32FA1DF41E065ED7CE082E00E94122FF4
:104610001092D222CF9108951F920F920FB60F924F
:1046200011240BB60F922F933F934F935F936F9389
:104630007F938F939F93AF93BF93EF93FF93B9DFD4
:10464000FF91EF91BF91AF919F918F917F916F916A
:104650005F914F913F912F910F900BBE0F900FBE26
:104660000F901F90189580E090E0019680342FE124
:104670009207D9F708950895CF92DF92EF92FF92B3
:104680000F931F93CF93DF93CDB7DEB7AB97CDBF1B
:10469000DEBFBE016F5D7F4F80E092E00E943A2E48
:1046A000AE01485D5F4F61E080E092E00E94A52E80
:1046B0009AA18BA18F7880618BA3917E9AA31CA273
:1046C00086E08DA381E088A788E089A7BE016F5DA1
:1046D0007F4F80E092E00E94F82DAE01485D5F4F71
:1046E00061E080E092E00E945D2E41E050E060E1F8
:1046F00080EA96E00E94B230B6DF80E092E00E944D
:10470000BC2D9FB7F89480910002846080930002D2
:104710009FBF80910602982F917080FFFACF9093EF
:1047200006020091240210912502D02EC12E80E0B5
:1047300092E00E94D32D18A688E089A7AE01485DBB
:104740005F4F61E080E092E00E945D2E80E092E0A9
:104750000E94BC2D9FB7F8948091000284608093E2
:1047600000029FBF80910602982F917080FFFACFC0
:10477000909306029FB7F894809100028460809322
:1047800000029FBF80910602982F917080FFFACFA0
:1047900090930602E0902402F090250280E092E0DF
:1047A0000E94D32DFF92EF92CF92DF9286EE9CE093
:1047B0009F938F93EE24E394F12CEC0EFD1EFF9259
:1047C000EF920E94934940E0B70181E00E94122FCE
:1047D00040E050E060E180EA96E00E94B230CDBF58
:1047E000DEBFC801AB96CDBFDEBFDF91CF911F9179
:1047F0000F91FF90EF90DF90CF900895EF92FF928E
:104800000F931F93CF93DF93CDB7DEB7AD97CDBF97
:10481000DEBFBE016F5D7F4F80E092E00E943A2EC6
:10482000AE01485D5F4F61E080E092E00E94A52EFE
:104830009AA18BA18F7825E02DA3917E9AA31CA22B
:1048400081608BA3BE016F5D7F4F80E092E00E948C
:10485000F82D18A619A6AE01485D5F4F61E080E013
:1048600092E00E945D2E6FE270E082E00E94B83418
:10487000182F6EE270E082E00E94B834512F40E0C1
:104880008A01082BF0DE80E092E00E94BC2D9FB7E9
:10489000F894809100028460809300029FBF809111
:1048A0000602982F917080FFFACF90930602E09055
:1048B0002402F090250280E092E00E94D32D26E6AB
:1048C00031E0D7010E94F347980140E050E00E9498
:1048D000C5475F934F933F932F9389EF9CE09F933E
:1048E0008F938E010F5F1F4F1F930F932CA73DA730
:1048F0000E94934940E0B80181E00E94122F2CA54C
:10490000822FCDBFDEBF3DA5932FAD96CDBFDEBFBD
:10491000DF91CF911F910F91FF90EF90089561501B
:10492000710981099109D9F708951F93CF93DF93F6
:10493000182F10C0C0E1D7E29091A2258091A32545
:10494000981312C060E971E080E090E0E8DF219701
:1049500099F711501111EECF41E065E473E183E066
:104960000E94122F80E001C08FEFDF91CF911F9145
:1049700008951F93CF93DF93C0EAD6E018E01D831C
:1049800060E07EE389E490E0CADF1E8360E876E9B8
:1049900088E990E0DF91CF911F91C1CF1F93CF9312
:1049A000DF93C0E6D6E011E01D8360E87AE186E09F
:1049B00090E0B5DF1E8360E47DE083E090E0AFDF50
:1049C00060E47DE083E090E0AADF1D83DF91CF917A
:1049D0001F910895CF92DF92EF92FF920F931F9352
:1049E000CF93DF938C01EB01C8801092A325109226
:1049F000A2251092A5251092A4258AE096DF8111A8
:104A000009C041E061E773E181E00E94122F81E07B
:104A1000D12C4BC0E091A325F0E0E256FA4D808501
:104A20009091A3259F5F97709093A3258D3051F4AB
:104A300080911820823008F360E480EA9BE00E94B5
:104A4000663EDBCF8A3019F07801D12C2AC08091E4
:104A50001820823090F263E280EA9BE00E94663E7A
:104A6000CCCFF70181937F01D3948AE05EDF81117F
:104A700008C041E06CEA73E181E00E94122F81E0FE
:104A800014C0E091A325F0E0E256FA4D80859091A4
:104A9000A3259F5F97709093A3258D3029F08A30CE
:104AA00019F0DC10DECF03C080E0CD1009C041E07A
:104AB00067EE73E181E00E94122FDC2CDA9482E031
:104AC000F801ED0DF11D1082D882DF91CF911F9179
:104AD0000F91FF90EF90DF90CF900895CF93DF93E9
:104AE000EC01AE01662757FD6095762F21966BBFCE
:104AF000FA016791662379F08091A10A85FFFCCFC6
:104B00006093A00A80911820823058F380EA9BE0DD
:104B10000E94663EE6CFDF91CF910895CF93DF9359
:104B2000611102C0EC0103C0DF91CF91D7CF699131
:104B3000662379F08091A10A85FFFCCF6093A00ADB
:104B400080911820823098F380EA9BE00E94663EB4
:104B5000EECFDF91CF910895CF92DF92EF92FF9247
:104B60000F931F93CF93DF931F92CDB7DEB76C01E6
:104B70007B018A01B3DFF80180818983BE016F5F09
:104B80007F4FC70127DF882389F06EE872E181E05B
:104B90000E943C2FC601A2DFF80180818983BE01FB
:104BA0006F5F7F4FC70116DF811105C08981F80152
:104BB000808380E00BC06EE872E181E00E943C2FB0
:104BC00061EC72E181E00E943C2F81E00F90DF9167
:104BD000CF911F910F91FF90EF90DF90CF900895AC
:104BE000EF92FF920F931F93CF93DF931F92CDB756
:104BF000DEB7182F1092A3251092A2251092A5259A
:104C00001092A425E82EF92E22C084E199838DDE2E
:104C10009981811108C062E374E181E00E943C2F18
:104C200020E030E020C0E091A325F0E0E256FA4D0C
:104C300080852091A3252F5F27702093A3258013C3
:104C400004C08FEFE81AF80A02C0E12EF92EA7017E
:104C5000662757FD6095762F6BBFFA01079101110A
:104C6000D4CF212F392FC9010F90DF91CF911F9100
:104C70000F91FF90EF9008954F925F926F927F9205
:104C8000BF92CF92DF92EF92FF920F931F93CF9339
:104C9000DF93CDB7DEB77C01B62E0DB71EB78DB74B
:104CA0009EB722E0629F8019910911248DBF9EBF9B
:104CB000CDB6DEB68FEFC81AD80A1092A32510928F
:104CC000A2251092A5251092A425462F14C0242FAA
:104CD00030E0220F331FC701820F931FAA2797FDD1
:104CE000A095BA2FABBFFC0187919691F601E20F18
:104CF000F31F80839183415050F784E116DE8111C8
:104D000009C041E068EE72E181E00E94122F20E0CC
:104D100030E04FC0E091A325F0E0E256FA4D308537
:104D20008091A3258F5F87708093A325C701D6014B
:104D300020E03BC04D915C9111972A01662457FCFD
:104D40006094762C6BBEF2014790341571F0AC0183
:104D5000662757FD6095762F6BBFFA0147915691F4
:104D60004C9311965C9311971DC04F5F5F4F4D930D
:104D70005C931197662757FD6095762F6BBFFA01FC
:104D8000479141110FC0C701820F911D820F911DE4
:104D9000AA2797FDA095BA2FABBFFC0187919691EA
:104DA0009C0107C02F5F029612962B1509F4A5CF20
:104DB000C1CFC9010DBF1EBFDF91CF911F910F91D0
:104DC000FF90EF90DF90CF90BF907F906F905F90BB
:104DD0004F90089562E08DE693E14ECFCF93DF933D
:104DE000EC017CDEF7DF009729F4CE0177DEDF915E
:104DF000CF91F0CFDF91CF9108958091A80681FFE8
:104E000006C06BE07DE081E00E943C2FB2CD6EE3F6
:104E10007DE081E00C943C2F8F929F92AF92BF92E5
:104E2000CF92DF92EF92FF920F931F93CF93DF9376
:104E3000CDB7DEB76497CDBFDEBF89E69DE0898B35
:104E40009A8BBC0182E00E94672F41E050E060EA4B
:104E50007AE08EE995E22BD58091A30A8F7C806160
:104E60008093A30A8091A30A837F8093A30A65E7B6
:104E70007DE081E00E943C2F38E1A32E8E010F5F80
:104E80001F4F40E1942E50E1852E8091A40A80614D
:104E90008093A40AB2DF23E0C22ED12CE12CF12CA6
:104EA0001DC067DD94E0B92E0EC078DD88EA9DE074
:104EB00015DE90DF7C012DE08D3A9207F1F060EB7A
:104EC0007DE081E0D9D7BA9481F78DEAE8168DE0CC
:104ED000F80699F062EE7DE081E0CED7E1E0CE1AEF
:104EE000D108F9F6FDEAEF16FDE0FF0631F060E3C8
:104EF0007EE081E0C1D71FEF12C160E874E88EE167
:104F000090E00DDD80E89EE069DF8D5A9D4029F03C
:104F100067E87EE081E0B0D704C068EB7EE082E025
:104F2000ABD760E874E88EE190E0F9DC8EED9EE0AE
:104F300055DF8D5A9D4029F06AEE7EE081E09CD7D6
:104F400004C06EE17FE082E097D760E874E88EE10C
:104F500090E0E5DC89E49FE041DF7C01FDE08D3AF3
:104F60009F0721F064E57FE081E086D7AC8A60E8A6
:104F700074E88EE190E0D3DCAE014C5E5F4F60EBF5
:104F800075E287E89FE0E8DD25DF60E97FE081E00A
:104F900073D740E060EB75E281E044D76FEC7EE1CF
:104FA00081E06AD72DEAE2162DE0F20629F060EAE8
:104FB0007FE081E061D704C061EC7FE081E05CD7F5
:104FC00060E874E88EE190E0AADC8FED9FE086DD7A
:104FD00001DF8D5A9D4031F06BEE7FE081E04CD7D0
:104FE00011E09DC060E874E88EE190E098DC8EE00E
:104FF00090E174DD69E089E190E13EDEF0E18B3221
:105000009F0709F035C063E370E181E035D768E0C0
:10501000C8010E941C108981811106C061E670E1FF
:1050200081E02AD713E07BC06AEA70E181E024D7EF
:1050300040E0B80181E0F6D66FEC7EE181E01CD75C
:1050400060E874E88EE190E06ADC8EEE90E146DD87
:1050500060E0C80163DD8FEC9EE140DDBBDE8D5A70
:105060009D4099F067EF70E181E006D713E057C0EB
:105070008C51914151F464E271E181E0FDD662E529
:1050800071E181E0F9D614E04AC01C8A43C086DC95
:1050900060E874E88EE190E042DC87E891E11EDD93
:1050A0008B8AF801292D11922A95E9F7BE016D5ED0
:1050B0007F4FC8018FDC45E050E062E971E1C80133
:1050C0000E941249892B29F06DE971E181E0D4D663
:1050D000DCCE8A85813331F460EE71E181E0CCD69B
:1050E00010E01DC06BE172E181E0C6D640E0B8017E
:1050F00081E098D66AE372E181E0BED661E672E1B2
:1051000081E0BAD660E07DE281E391E008DC8C8941
:105110008F5F8C8B8C89823108F4B9CF10E0CE017F
:105120004196E8D6812F6496CDBFDEBFDF91CF9147
:105130001F910F91FF90EF90DF90CF90BF90AF90B5
:105140009F908F900895DF92EF92FF920F931F939D
:10515000CF93DF93CDB7DEB7A397CDBFDEBF8C0172
:10516000D62E80E28BA38CEA94E189A39AA3BC019A
:1051700082E0ADD660E874E88EE190E0D0DBAE016D
:105180004D5D5F4FBE016F5F7F4F8DEB94E1E4DCBF
:10519000882339F041E06CEC74E181E043D611E002
:1051A000DBC018DE7C0141E062E275E182E03AD6C4
:1051B00040E0BE016F5F7F4F82E034D641E06FEC8C
:1051C0007EE182E02FD62DEAE2162DE0F20639F0DC
:1051D00041E062E475E181E025D611E0BDC04BE01D
:1051E00050E068E975E1CE0101960E941249892BD1
:1051F00081F08B8541E0823331F46EEA75E181E024
:1052000011D612E0A9C067EF75E181E00BD610E07E
:10521000A3C060E874E88EE190E081DB8AE396E168
:10522000DDDD892B39F441E06AE576E181E0FAD5EC
:1052300011E092C060E874E88EE190E070DB82ECEF
:1052400096E14CDC6D2DC80169DC87ED96E146DC0A
:10525000C1DD2DE08D3A9207C1F0892B81F482ECFB
:1052600096E13CDC6D2DC80159DC87ED96E136DC1A
:10527000B1DD2DE08D3A920741F0892B31F06BEDD5
:1052800076E181E0F9D511E067C060E874E88EE16D
:1052900090E045DB88E397E1A1DD8D5A9D4031F038
:1052A00067E477E181E0E8D511E056C06AE0F62EC8
:1052B00070E2E72EEBA260E874E88EE190E02FDB6D
:1052C000AE014D5D5F4FBE016F5F7F4F8EE997E18D
:1052D00043DC882331F06DEA77E181E0CDD511E040
:1052E0003BC078DD8C0160E078E182E0C5D540E02C
:1052F000BE016F5F7F4F82E095D56FEC7EE182E06B
:10530000BBD50D5A1D4031F060E278E181E0B4D5A3
:1053100011E022C08B85803351F463E678E181E0AF
:10532000ABD560E072E18AE790E0F9DA11C0813331
:1053300031F461EC78E182E09FD510E00DC082533A
:10534000823030F463EF78E181E096D511E004C05B
:10535000FA9409F0AFCF10E0CE018196CBD5812F22
:10536000A396CDBFDEBFDF91CF911F910F91FF902C
:10537000EF90DF900895CF93DF93CDB7DEB7C054A1
:10538000D109CDBFDEBF6CE3CE0101960E94201093
:1053900067E874E182E070D540E0BE016F5F7F4F47
:1053A00082E040D56FEC7EE182E066D560E0CE0120
:1053B0000196C9DEC05CDF4FCDBFDEBFDF91CF916C
:1053C000089560E874E88EE190E0A9DA84E499E158
:1053D00005DD21E08D5A9D4009F420E0822F0895DB
:1053E000F0CFEF92FF920F931F93CF93DF93CDB740
:1053F000DEB7C154D109CDBFDEBF8C017B0180E493
:1054000022968FAF229760E874E88EE190E087DA09
:1054100083E599E163DB81E699E1E2DB892B99F190
:10542000BE016F5B7F4FCE010196D4DA282F30E0AA
:105430002130310539F46CE679E181E01DD521E0B8
:1054400030E026C02230310539F46DEA79E181E09F
:1054500013D522E030E01CC0B701C801BBDA90E0F0
:105460008130910539F468EE79E181E005D523E0DA
:1054700030E00EC0029751F469E27AE181E0FCD499
:1054800024E030E005C021E030E002C020E030E060
:10549000C901CF5BDF4FCDBFDEBFDF91CF911F9141
:1054A0000F91FF90EF900895BF92CF92DF92EF920D
:1054B000FF920F931F93CF93DF93CDB7DEB7619722
:1054C000CDBFDEBF8C01B62E7A01690160E874E8B9
:1054D0008EE190E024DA84E69AE180DC892B39F4CD
:1054E00069E67AE181E0C8D421E030E0AFC060E84D
:1054F00074E88EE190E013DA84E99AE16FDC8D5A6A
:105500009D4039F062EA7AE181E0B6D421E030E0F2
:105510009DC060E874E88EE190E001DA89EC9AE1E0
:105520005DDC8D5A9D4039F06FED7AE181E0A4D4C5
:1055300021E030E08BC060E874E88EE190E0EFD9C4
:105540008CE09BE1CBDA6B2DC801E8DA80E29BE1CD
:10555000C5DA40DC60E874E88EE190E0E0D984E2EE
:105560009BE13CDC8D5A9D4039F066E37BE181E0B4
:1055700083D421E030E06AC08FE59BE131DB892BE9
:1055800039F46CE67BE181E077D421E030E05EC065
:1055900080E1898BBE016F5E7F4FCE0101961ADAE2
:1055A000813031F469E97BE167D421E030E04EC01D
:1055B00069ED7BE181E060D440E0BE016F5F7F4F29
:1055C00081E030D46FEC7EE181E056D48B81823370
:1055D00031F48C81803319F48D81803339F061E0AE
:1055E0007CE181E049D421E030E030C060E874E83B
:1055F0008EE190E094D981E39CE170DA8FE39CE145
:10560000EFDA892B09F180E1898BBE016F5E7F4F54
:10561000CE010196DFD9813039F441E06AE47CE1C2
:1056200001D421E030E012C0823041F441E069E869
:105630007CE181E0F7D322E030E008C0B601C70189
:10564000C9D920E030E002C021E030E0C901619614
:10565000CDBFDEBFDF91CF911F910F91FF90EF90F3
:10566000DF90CF90BF900895AF92BF92CF92DF921C
:10567000EF92FF920F931F93CF93DF93CDB7DEB7D7
:10568000C154D109CDBFDEBF7C01A62E6A01122F05
:10569000B32E60E874E88EE190E041D982EC9CE1A1
:1056A0009DDB892B41F441E067EC7CE183E0BAD3D8
:1056B00021E030E0B4C060E874E88EE190E02FD9DA
:1056C00083EF9CE18BDB8D5A9D4009F078C060E848
:1056D00074E88EE190E023D981E09DE17FDB8D5A73
:1056E0009D4009F06CC060E874E88EE190E017D945
:1056F00087E19DE1F3D96A2DC70110DA8BE29DE1C4
:10570000EDD968DB60E874E88EE190E008D985E7C0
:105710008F9380E38F93BF921F932FE23DE13F93DE
:105720002F93EE24E394F12CEC0EFD1EFF92EF92EA
:105730000E94934960E0C701F1D983E49DE150DA0A
:10574000CDBFDEBF892B09F43AC060E874E88EE172
:1057500090E0E5D8602FC601E1D93CDB60E874E851
:105760008EE190E0DCD88CE49DE138DB8D5A9D40E1
:1057700041F041E06EE57DE181E054D321E030E08D
:105780004EC088E89DE12CDA892BE1F441E065E91F
:105790007DE181E047D381EC9DE122DA892B91F410
:1057A00041E06EEC7DE181E03DD388EF9DE118DAC8
:1057B000892B41F441E065E07EE181E033D321E0D3
:1057C00030E02DC080E422968FAF2297BE016F5B40
:1057D0007F4FCE010196FED841E063E37EE181E098
:1057E00021D340E0BE016F5F7F4F81E01BD341E0DA
:1057F0006FEC7EE181E016D38B81823331F48C81B2
:10580000803319F48D81803341F041E06CE57EE115
:1058100081E008D321E030E002C020E030E0C9019F
:10582000CF5BDF4FCDBFDEBFDF91CF911F910F91D7
:10583000FF90EF90DF90CF90BF90AF90089560E819
:1058400074E88EE190E06BD88DE89EE1C7DA21E044
:105850008D5A9D4009F420E0822F08951F920F92E7
:105860000FB60F9211240BB60F922F933F934F93C5
:105870005F936F937F938F939F93AF93BF93EF93B8
:10588000FF938EE995E21DD0FF91EF91BF91AF910B
:105890009F918F917F916F915F914F913F912F9148
:1058A0000F900BBE0F900FBE0F901F901895FC012C
:1058B0006083718342835383158214821782168218
:1058C0000895FC012481822F8F5F87709581891351
:1058D00004C0982F9F5F97709583A081B1816C91D0
:1058E000DF01A20FB11D18966C938483809118205C
:1058F000833020F080EA9BE00E94663E81E00895BC
:10590000E0E7F0E081818360818382818760828328
:10591000E0EBF0E09FEF908388E1A0E0B6E05096E6
:105920008C939083E0E2F6E0808BE0EAF6E08685F7
:105930008061868743E050E060E880EA96E012D418
:1059400040E050E060E480EA96E00CD443E050E0B0
:1059500068E080E896E006D440E050E064E080E84B
:1059600096E000D443E050E061E080E696E0FAD3B0
:1059700041E050E068E080EA96E0F4D340E050E097
:1059800062E080EA96E0EED340E051E061E080EE34
:1059900097E0E8D340E051E062E080EE97E0E2D3A8
:1059A00040E050E860E280E696E0DCD340E050E082
:1059B00060E180EA96E0D6C39C0183709927892B29
:1059C00081F4C90164E670E00E94B147892B11F0AF
:1059D00081E00895C90160E971E00E94B147892B17
:1059E000B9F380E008954F925F926F927F928F9209
:1059F0009F92AF92BF92CF92DF92EF92FF92CF939E
:105A0000DF93EA0122EB37E02D833E831C8220E8FE
:105A100031E541E050E00E94C54769017A012B0160
:105A20003C012CE3822E912CA12CB12CA5019401D8
:105A30000E94C5476883C301B20120E13EE040E017
:105A400050E00E94C547722EA50194010E94C547EF
:105A500029837A82C701B6016C5F7F4F8F4F9F4FBA
:105A600027E030E040E050E00E94C5476F8309C066
:105A7000C41AD50AE60AF70A2FEFA21AB20AAD82B3
:105A8000BE82AD80BE80C50197DF882319F04EE647
:105A900051E002C04DE651E060E070E0C416D5066A
:105AA000E606F70628F707C0C41AD50AE60AF70A79
:105AB0002F5F2C8304C02CE0829FC00111242C8115
:105AC000FC01E20FF11DE15AFE4D408150E060E023
:105AD00070E0C416D506E606F70630F7CB82DF91F4
